:10000000B7EF0EF00000000000EF00F0000000006D
:0A0010000000000000000000F3D71C
:0E001C0001012DB102D08B9801D08B8812000B
:0E002A0001012DB102D08B9601D08B86120001
:0E00380001012DB102D08D9601D08D861200EF
:0E00460001012DB102D0899401D089841200ED
:0E00540001012DB102D08B9C01D08B8C1200CB
:0E00620001012DB102D08B9401D08B841200CD
:0E00700001012DB102D08B9A01D08B8A1200B3
:0E007E0001012DB102D08B9E01D08B8E12009D
:0E008C0001012DB102D08A9201D08A821200A9
:0E009A0001012DB102D08D9401D08D84120091
:0E00A80001012DB102D08F9201D08F82120083
:0E00B60001012DB102D08F9401D08F84120071
:0E00C40001012DB102D08B9801D08B88120063
:0E00D20001012DB102D08B9601D08B86120059
:0E00E00001012DB102D08A9401D08A84120051
:0E00EE0001012DB102D08B9801D08B88120039
:0E00FC0001012DB102D08B9601D08B8612002F
:0E010A0001012DB102D08F9001D08F80120024
:0E01180001012DB102D08B9A01D08B8A12000A
:0E01260001012DB102D08B9801D08B88120000
:0E01340001012DB102D08B9601D08B861200F6
:0E01420001012DB102D08B9201D08B821200F0
:0E01500001012DB102D08B9A01D08B8A1200D2
:0E015E0001012DB102D08D9001D08D801200D4
:10016C000F0121B302D00000FBD72DC11CFF1200E0
:0E017C00ACB202D00000FCD72DC1ADFF1200C6
:0E018A0001012DB102D08B9001D08B801200AC
:0E01980001012DB102D0899001D089801200A2
:0E01A60001012DB102D08A9001D08A80120092
:0E01B40001012DB102D08D9201D08D8212007A
:0E01C20001012DB102D0899801D08988120068
:0E01D00001012DB102D08B9801D08B88120056
:0E01DE0001012DB102D08B9601D08B8612004C
:0E01EC0001012DB102D0899201D0898212004A
:0E01FA0001012DB102D08B9C01D08B8C120024
:0E02080001012DB102D08B9E01D08B8E120011
:0E02160001012DB102D08B9801D08B8812000F
:0E02240001012DB102D08B9601D08B86120005
:1002320068B409D01F0E6614016E0150000A03E172
:0A024200010E006E01D0006A1200E8
:10024C00C7B409D01F0EC514016E0150000A03E19A
:0A025C00010E006E01D0006A1200CE
:10026600F250026EF29E0500FF6A0150FE6E0050CB
:08027600FD6E02BEF28E1200C3
:10027E009E9627C1C9FF72C028F173C029F174C0C0
:10028E002AF175C02BF1C7A422D00001725173114F
:10029E00741175111BE00101285129112A112B111E
:1002AE000EE1C3C0E1FFC4C0E2FF040EE66EC1C0A2
:1002BE0000F0C2C001F0D0DF010E006E3BD0010E87
:1002CE000101285F000E295B2A5B2B5BDCD772C015
:1002DE0028F173C029F174C02AF175C02BF19EB6B6
:1002EE0022D0000172517311741175111BE00101BE
:1002FE00285129112A112B110EE1C3C0E1FFC4C0F0
:10030E00E2FF040EE66EC1C000F0C2C001F0A4DF31
:10031E00010E006E0FD0010E0101285F000E295B49
:10032E002A5B2B5BDCD7C5BC02D0006A03D0C58428
:06033E00020E006E120029
:10034400A19A27C16AFF4CC028F14DC029F14EC0C3
:100354002AF14FC02BF168A421D04C504D104E10FF
:100364004F101BE00101285129112A112B110EE114
:1003740081C0E1FF82C0E2FF040EE66E7FC000F0A0
:1003840080C001F06EDF010E006E3AD0010E010153
:10039400285F000E295B2A5B2B5BDDD74CC028F15C
:1003A4004DC029F14EC02AF14FC02BF1A1BA21D082
:1003B4004C504D104E104F101BE0010128512911D3
:1003C4002A112B110EE181C0E1FF82C0E2FF040E6D
:1003D400E66E7FC000F080C001F043DF010E006EC6
:1003E4000FD0010E0101285F000E295B2A5B2B5BF5
:1003F400DDD766BC02D0006A03D06684020E006EAC
:020404001200E4
:1004060072C029F173C02AF174C02BF175C02CF1AA
:100416000101276B286B2851120802E127518E082B
:1004260008E311DF005201E004D00101274B282B1D
:10043600F2D70101120E285D02E18F0E275D03E35C
:100446007B0E006E26D0C580C5A022D00001725159
:100456007311741175111BE0010129512A112B1119
:100466002C110EE1C3C0E1FFC4C0E2FF050EE66E2B
:10047600C1C000F0C2C001F0F3DE010E006E09D06B
:10048600010E0101295F000E2A5B2B5B2C5BDCD77A
:04049600006A1200E6
:0A049A00000E80B0010E006E12008B
:1004A4004CC029F14DC02AF14EC02BF14FC02CF1A4
:1004B4000101276B286B2851120802E127518E088D
:1004C40008E3B5DE005201E004D00101274B282BDC
:1004D400F2D70101120E285D02E18F0E275D03E3BE
:1004E4007B0E006E24D0668066A020D04C504D1048
:1004F4004E104F101AE029512A112B112C110EE124
:1005040081C0E1FF82C0E2FF050EE66E7FC000F00D
:1005140080C001F0A6DE010E006E09D0010E0101BB
:10052400295F000E2A5B2B5B2C5BDED7006A12006E
:100534004CC029F14DC02AF14EC02BF14FC02CF113
:10054400A19A6686A1BA1FD04C504D104E104F1080
:1005540019E0010129512A112B112C110CE181C040
:10056400E1FF82C0E2FF030EE66E7FC000F080C0B0
:1005740001F077DE08D0010E0101295F000E2A5B2D
:100584002B5B2C5BDFD701016ACF28F12751000ACE
:1005940002E1668A01D0669AA19A66884CC029F164
:1005A4004DC02AF14EC02BF14FC02CF1A1BA1FD07F
:1005B4004C504D104E104F1019E0010129512A11D1
:1005C4002B112C110CE181C0E1FF82C0E2FF030E6C
:1005D400E66E7FC000F080C001F043DE08D0010E5B
:1005E4000101295F000E2A5B2B5B2C5BDFD728C13E
:0405F40000F0120001
:0A05F800000E82B6010E006E120024
:0A060200000E82B8010E006E120017
:0A060C00000E82BC010E006E120009
:10061600AECF01F0ABA202D0AB98AB8801C000F020
:020626001200C0
:0A062800000E82B8010E006E1200F1
:0A063200000E9EBA010E006E1200C9
:0A063C00000E82B6010E006E1200DF
:0A064600000E84B0010E006E1200D9
:0A065000000E82B0010E006E1200D1
:0A065A00000E82B2010E006E1200C5
:0A066400000E82BA010E006E1200B3
:0A066E00000E81B0010E006E1200B4
:0A067800000E84B2010E006E1200A5
:0A068200000EACB2010E006E120073
:0A068C00000EA4BA010E006E120069
:100696001DCF01F00F0122A302D02299228901C0A9
:0406A60000F012004E
:0C06AA00000E0F0121B3010E006E1200C3
:0A06B600000E80B2010E006E12006B
:0A06C000000E82B8010E006E120059
:0A06CA00000E82BA010E006E12004D
:0A06D400000E86B0010E006E120049
:0A06DE00000E82B6010E006E12003D
:0406E8006684120012
:0A06EC00000E84B4010E006E12002F
:1006F6004CC027F14DC028F14EC029F14FC02AF158
:10070600668266A21FD04C504D104E104F1019E055
:1007160001012751281129112A110CE181C0E1FF9D
:1007260082C0E2FF060EE66E7FC000F080C001F0D8
:1007360097DD08D0010E0101275F000E285B295BBB
:060746002A5BDFD7120060
:0A074C00000E82B8010E006E1200CC
:1007560072C027F173C028F174C029F175C02AF15F
:10076600C582C5A220D00001725173117411751192
:1007760019E001012751281129112A110CE1C3C0E2
:10078600E1FFC4C0E2FF060EE66EC1C000F0C2C0C3
:1007960001F066DD08D0010E0101275F000E285B1F
:0807A600295B2A5BDED712007B
:0407AE00C5841200EC
:0A07B200000E82B6010E006E120068
:0A07BC00000E81B4010E006E120061
:0A07C600000E86B4010E006E120052
:0A07D000000E86B2010E006E12004A
:0A07DA00000E82BA010E006E12003C
:0A07E400000E82B4010E006E120038
:0A07EE00000E81B2010E006E120031
:0A07F800000E82B8010E006E120020
:0A080200000E80B8010E006E120017
:0A080C00000E82BE010E006E120005
:0A081600000E82B6010E006E120003
:0A082000000E82B8010E006E1200F7
:0A082A00000E80B4010E006E1200F3
:0A083400000E84B6010E006E1200E3
:0A083E00000E82B6010E006E1200DB
:0A084800000E82BE010E006E1200C9
:1008520072C029F173C02AF174C02BF175C02CF15A
:100862009E96C5869EB620D00001725173117411F6
:10087200751119E0010129512A112B112C110CE1DA
:10088200C3C0E1FFC4C0E2FF030EE66EC1C000F0C8
:10089200C2C001F0E7DC08D0010E0101295F000EA1
:1008A2002A5B2B5B2C5BDED70101C9CF28F12751D4
:1008B200000A02E1C58A01D0C59A9E96C58872C017
:1008C20029F173C02AF174C02BF175C02CF19EB6C8
:1008D20020D00001725173117411751119E00101D8
:1008E20029512A112B112C110CE1C3C0E1FFC4C004
:1008F200E2FF030EE66EC1C000F0C2C001F0B2DC3E
:1009020008D0010E0101295F000E2A5B2B5B2C5BD4
:08091200DED728C100F012003D
:0A091A00000E82BC010E006E1200F8
:10092400086A096A100E0C6E013408360936045040
:10093400085E0550D8A0053C095ED8B007D0045025
:1009440008260550D8B0053C0926D8900036013653
:060954000C2EEAD7120090
:10095A006C0E0001BD6F010EBE6F2D0EBF6F010E32
:10096A00C06F960EC96F060ECA6F000ECB6F000ECF
:10097A00CC6F8C0EC56F060EC66F000EC76F000EC9
:10098A00C86FAA0EB96F060EBA6F000EBB6F000EC3
:10099A00BC6F0F01218B900E226F98849892A4AAA3
:0A09AA0003D01DCF00F0FBD71200B0
:1009B4004C0E0001CD6F020ECE6F000ECF6F000EF5
:1009C400D06F060ED16F040ED26F000ED36F000EDF
:1009D400D46F560ED96F070EDA6F000EDB6F000E60
:1009E400DC6F520ED56F080ED66F270ED76F010E2F
:1009F400D86F7E0EB56F020EB66F270EB76F010E5D
:100A0400B86FAE0EB16F070EB26F000EB36F000E6B
:100A1400B46F949894968B988B9694889486C79E7A
:080A2400C79C380EC66E1200DB
:100A2C007C0E0001BD6F010EBE6F2D0EBF6F010E4F
:100A3C00C06F160EC96F060ECA6F000ECB6F000E7C
:100A4C00CC6F320EC56F060EC66F000EC76F000E50
:100A5C00C86F820EB96F060EBA6F000EBB6F000E18
:100A6C00BC6FAC8A900EAB6E948E949C9EAA03D0F5
:080A7C00AECF00F0FBD7120021
:100A840019C11CF11AC11DF11BC11EF10BD0A00E1E
:100A9400C86E8EDF44D0280EC86E8ADF40D0040EA4
:100AA400006E3FD01CC1F6FF1DC1F7FF1EC1F8FF49
:100AB4000900F5CF01F00900F5CF02F00900F5CFE8
:100AC40003F00900F5CF04F00450000A08E10350D4
:100AD400010A05E10250860A02E10150A00AD7E0AA
:100AE4001CC1F6FF1DC1F7FF1EC1F8FF0900F5CFB9
:100AF40001F00900F5CF02F00900F5CF03F0090079
:100B0400F5CF04F00450000A08E10350060A05E199
:100B140002501A0A02E10150800ABDE0C0D7000E5B
:040B2400006E12004D
:100B280019C11CF11AC11DF11BC11EF10BD0A00E79
:100B3800C86E3CDF44D0280EC86E38DF40D0040EA3
:100B4800006E3FD01CC1F6FF1DC1F7FF1EC1F8FFA4
:100B58000900F5CF01F00900F5CF02F00900F5CF43
:100B680003F00900F5CF04F00450000A08E103502F
:100B7800010A05E10250860A02E10150A00AD7E005
:100B88001CC1F6FF1DC1F7FF1EC1F8FF0900F5CF14
:100B980001F00900F5CF02F00900F5CF03F00900D4
:100BA800F5CF04F00450000A08E10350060A05E1F5
:100BB80002501A0A02E10150800ABDE0C0D7000EB7
:040BC800006E1200A9
:100BCC00300E01011925006E000E1A21016E000E67
:100BDC001B21026E1C0E0024F66E000E0120F76E17
:100BEC00000E0220F86E0900F5CFA0F00900F5CF39
:100BFC00A1F00900F5CFA2F00900F5CFA3F0080E83
:100C0C001925F66E000E1A21F76E000E1B21F86ED8
:100C1C000900F5CF83F00900F5CF84F00900F5CF7A
:100C2C0085F00900F5CF86F0180E1925F66E000E2A
:100C3C001A21F76E000E1B21F86E0900F5CF9CF0FF
:100C4C000900F5CF9DF00900F5CF9EF00900F5CF16
:100C5C009FF0200E1925F66E000E1A21F76E000E6D
:100C6C001B21F86E0900F5CFADF00900F5CFAEF001
:100C7C000900F5CFAFF00900F5CFB0F0240E19251F
:100C8C00F66E000E1A21F76E000E1B21F86E09008D
:100C9C00F5CFA9F00900F5CFAAF00900F5CFABF01C
:080CAC000900F5CFACF01200C5
:100CB40019C1F6FF1AC1F7FF1BC1F8FF0900F5CFF0
:100CC40094F00900F5CF95F00900F5CF96F00900EE
:100CD400F5CF97F0040E01011925F66E000E1A21C6
:100CE400F76E000E1B21F86E0900F5CF98F009008D
:100CF400F5CF99F00900F5CF9AF00900F5CF9BF0F4
:100D0400080E1925F66E000E1A21F76E000E1B212F
:100D1400F86E0900F5CF88F00900F5CF89F00900D5
:100D2400F5CF8AF00900F5CF8BF00C0E1925F66E7D
:100D3400000E1A21F76E000E1B21F86E0900F5CF84
:100D4400A5F00900F5CFA6F00900F5CFA7F009003A
:100D5400F5CFA8F0100E1925F66E000E1A21F76EC5
:100D6400000E1B21F86E0900F5CF8CF00900F5CFB9
:100D74008DF00900F5CF8EF00900F5CF8FF0120049
:100D840021D0CF0EAF6EAC944FDE6BD0670EAF6E3A
:100D9400AC944ADE66D0CF0EAF6EAC8445DE61D033
:100DA400670EAF6EAC8440DE5CD0440EAF6EAC8494
:100DB4003BDE57D0220EAF6EAC8436DE52D0060E28
:100DC400006E59D0000E006E01011C1908E100509C
:100DD4001B1905E1120E1A1902E11951C00AD1E0DA
:100DE400000E006E1C1908E100501B1905E1250EC8
:100DF4001A1902E11951800AC9E0000E006E1C198B
:100E040008E100501B1905E14B0E1A1902E11951B2
:100E1400000AC1E0000E006E1C1908E100501B1905
:100E240005E1960E1A1902E11951000AB9E0000E03
:100E3400006E1C1908E100501B1905E1E10E1A1996
:100E440002E11951000AB1E01C51000A08E11B51EA
:100E5400010A05E11A51C20A02E11951000AAAE085
:100E6400AED77C0E0001906F010E916F2D0E926F24
:080E7400010E936F006A1200E9
:100E7C0038D00F0120870D0E1F6F040E1E6F2185B9
:100E8C0066DD7ED00F012087060E1F6F820E1E6F4F
:100E9C0021855DDD75D00F012087030E1F6F400E7D
:100EAC001E6F218554DD6CD00F012087010E1F6F42
:100EBC00A00E1E6F21854BDD63D00F012087010E24
:100ECC001F6F150E1E6F218542DD5AD00F01208732
:100EDC001F6B8A0E1E6F21853ADD52D0060E006EF6
:100EEC0059D0000E006E01011C1908E100501B19AD
:100EFC0005E1120E1A1902E11951C00ABAE0000EEE
:100F0C00006E1C1908E100501B1905E1250E1A1979
:100F1C0002E11951800AB6E0000E006E1C1908E1BE
:100F2C0000501B1905E14B0E1A1902E11951000A68
:100F3C00B2E0000E006E1C1908E100501B1905E10F
:100F4C00960E1A1902E11951000AAEE0000E006E5D
:100F5C001C1908E100501B1905E1E10E1A1902E1F8
:100F6C001951000AAAE01C51000A08E11B51010AA0
:100F7C0005E11A51C20A02E11951000AA7E0AED7E5
:100F8C006C0E0001906F010E916F2D0E926F010E81
:060F9C00936F006A1200D1
:100FA20021D0CF0EAF6EAC9440DD6BD0670EAF6E2A
:100FB200AC943BDD66D0CF0EAF6EAC8436DD61D033
:100FC200670EAF6EAC8431DD5CD0440EAF6EAC8484
:100FD2002CDD57D0220EAF6EAC8427DD52D0060E28
:100FE200006E59D0000E006E01011C1908E100507C
:100FF2001B1905E1120E1A1902E11951C00AD1E0BA
:10100200000E006E1C1908E100501B1905E1250EA7
:101012001A1902E11951800AC9E0000E006E1C196A
:1010220008E100501B1905E14B0E1A1902E1195192
:10103200000AC1E0000E006E1C1908E100501B19E5
:1010420005E1960E1A1902E11951000AB9E0000EE3
:10105200006E1C1908E100501B1905E1E10E1A1976
:1010620002E11951000AB1E01C51000A08E11B51CA
:10107200010A05E11A51C20A02E11951000AAAE065
:10108200AED77C0E0001906F010E916F2D0E926F04
:08109200010E936F006A1200C9
:10109A0019C11CF11AC11DF11BC11EF10BD0A00E02
:1010AA00C86E83DC44D0280EC86E7FDC40D0040EA4
:1010BA00006E3FD01CC1F6FF1DC1F7FF1EC1F8FF2D
:1010CA000900F5CF01F00900F5CF02F00900F5CFCC
:1010DA0003F00900F5CF04F00450000A08E10350B8
:1010EA00010A05E10250860A02E10150A00AD7E08E
:1010FA001CC1F6FF1DC1F7FF1EC1F8FF0900F5CF9D
:10110A0001F00900F5CF02F00900F5CF03F009005C
:10111A00F5CF04F00450000A08E10350060A05E17D
:10112A0002501A0A02E10150800ABDE0C0D7000E3F
:04113A00006E120031
:10113E0021D0CF0EAF6EAC9472DC6BD0670EAF6E5B
:10114E00AC946DDC66D0CF0EAF6EAC8468DC61D033
:10115E00670EAF6EAC8463DC5CD0440EAF6EAC84B5
:10116E005EDC57D0220EAF6EAC8459DC52D0060E28
:10117E00006E59D0000E006E01011C1908E10050DE
:10118E001B1905E1120E1A1902E11951C00AD1E01C
:10119E00000E006E1C1908E100501B1905E1250E0A
:1011AE001A1902E11951800AC9E0000E006E1C19CD
:1011BE0008E100501B1905E14B0E1A1902E11951F5
:1011CE00000AC1E0000E006E1C1908E100501B1948
:1011DE0005E1960E1A1902E11951000AB9E0000E46
:1011EE00006E1C1908E100501B1905E1E10E1A19D9
:1011FE0002E11951000AB1E01C51000A08E11B512D
:10120E00010A05E11A51C20A02E11951000AAAE0C7
:10121E00AED77C0E0001906F010E916F2D0E926F66
:08122E00010E936F006A12002B
:1012360001011D6B050E1D5D0AE21D511B25E16EA8
:10124600000E1C21E26E200EE66E1D2BF3D71D51FB
:101256001B25E16E000E1C21E26EE66A1D071D517C
:101266001B251E6F000E1C211F6F0A0E046E000E3A
:10127600056E19C100F01AC101F092EC04F008C025
:1012860000F009C001F0300E00261EC1E1FF1FC1AB
:10129600E2FF00C0E6FF0A0E046E000E056E19C1DD
:1012A60000F01AC101F092EC04F000C019F101C07F
:1012B6001AF1000E011802E1000E001801E102D039
:0612C6001D07CDD7120048
:1012CC0059D001011AB102D0929001D092800F0135
:1012DC00259176D001011AB102D0949001D094805E
:1012EC006FD001011AB102D0969001D0968068D0CF
:1012FC0001011AB102D0949601D0948661D00101FB
:10130C001AB102D0949801D094885AD001011AB124
:10131C0002D0949A01D0948A53D001011AB102D010
:10132C00949201D094824CD001011AB102D09390C6
:10133C0001D0938045D001011AB102D0949E01D006
:10134C00948E3ED001011AB102D0949C01D0948CA1
:10135C0037D001011AB102D0949601D0948630D0C6
:10136C0001011AB102D0949801D0948829D0010EB1
:10137C00006E28D001011951000AA3E01951010A8D
:10138C00A9E01951020AADE01951030AB1E0195153
:10139C00040AB5E01951050AB9E01951060ABDE075
:1013AC001951070AC1E01951080AC5E01951090A77
:1013BC00C9E019510A0ACDE019510B0AD1E0D7D76F
:0613CC00000E006E12008D
:1013D2000101216B226B1AC11FF11BC120F119C13E
:1013E20000F0003600900080A7C0E1FFA8C0E2FF35
:1013F20000C0E6FFA5C000F0A6C001F033EC01F08A
:10140200005001012113000E2213010E1C5F000E79
:101412001D5B1C511D1116E08EC0E1FF8FC0E2FF63
:10142200010EE66E8CC000F08DC001F033EC01F0CD
:101432001FC1E1FF20C1E2FF00C0E6FF01011F4B17
:10144200202BE3D78EC0E1FF8FC0E2FFE66A8CC09B
:1014520000F08DC001F033EC01F01FC1E1FF20C1AB
:10146200E2FF00C0E6FF01011E51000A06E198C03A
:1014720000F099C001F033EC01F001011E51010AA4
:1014820006E188C000F089C001F033EC01F021C10F
:0814920000F022C101F012007C
:10149A000101216B226B1AC11FF11BC120F119C175
:1014AA0000F000360090A7C0E1FFA8C0E2FF00C02C
:1014BA00E6FFA5C000F0A6C001F033EC01F0005031
:1014CA0001012113000E22131CC100F01DC101F0FD
:1014DA00010E1C5F000E1D5B0050011018E0A7C032
:1014EA00E1FFA8C0E2FF1FC1E9FF20C1EAFFEECF7A
:1014FA00E6FFA5C000F0A6C001F033EC01F00050F1
:10150A0001012113000E22131F4B202BDDD71E5180
:10151A00000A06E198C000F099C001F033EC01F02E
:10152A0001011E51010A06E194C000F095C001F0C4
:0E153A0033EC01F021C100F022C101F01200DB
:101548000101196B1A6B94C000F095C001F033ECDF
:1015580001F000C019F1000E01011A6F19C100F065
:061568001AC101F012009F
:10156E0019C11DF11AC11EF11BC100F01CC101F001
:10157E00010E01011B5F000E1C5B0050011015E0F7
:10158E0079C0E1FF7AC0E2FFE66A77C000F078C06A
:10159E0001F033EC01F01DC1E1FF1EC1E2FF00C0FE
:0C15AE00E6FF01011D4B1E2BDFD71200D1
:1015BA005DD001011AB102D0929401D092840F0138
:1015CA0025957AD001011AB102D0969601D0968655
:1015DA0073D001011AB102D0969401D096846CD0CE
:1015EA0001011AB102D0949601D0948665D0010106
:1015FA001AB102D0949801D094885ED001011AB130
:10160A0002D0949A01D0948A57D001011AB102D01B
:10161A00989001D0988050D001011AB102D09394C9
:10162A0001D0938449D001011AB102D0989401D013
:10163A0098840F01239540D001011AB102D09892E3
:10164A0001D098820F01239337D001011AB102D039
:10165A00949601D0948630D001011AB102D09498A0
:10166A0001D0948829D0010E006E28D001011951A9
:10167A00000A9FE01951010AA5E01951020AA9E0DE
:10168A001951030AADE01951040AB1E01951050ACA
:10169A00B5E01951060AB9E01951070ABDE0195116
:1016AA00080AC1E01951090AC7E019510A0ACDE02E
:0E16BA0019510B0AD1E0D7D7000E006E1200B6
:1016C80092C0E1FF93C0E2FF19C1E9FF1AC1EAFF26
:1016D800EECFE6FF90C000F091C001F033EC01F0CE
:0416E800006A120082
:1016EC0019C11DF11AC11EF11BC100F01CC101F082
:1016FC00010E01011B5F000E1C5B0050011014E079
:10170C007DC0E1FF7EC0E2FF1DC1E9FF1EC1EAFF03
:10171C00EECFE6FF7BC000F07CC001F033EC01F0B3
:0A172C0001011D4B1E2BE0D7120037
:1017360059D001011AB102D0929201D092820F01C2
:10174600259376D001011AB102D0929801D09288E1
:101756006FD001011AB102D0969201D0968268D05C
:1017660001011AB102D0949601D0948661D001018C
:101776001AB102D0949801D094885AD001011AB1B6
:1017860002D0949A01D0948A53D001011AB102D0A2
:10179600949401D094844CD001011AB102D0939252
:1017A60001D0938245D001011AB102D0949E01D096
:1017B600948E3ED001011AB102D0949C01D0948C33
:1017C60037D001011AB102D0949601D0948630D058
:1017D60001011AB102D0949801D0948829D0010E43
:1017E600006E28D001011951000AA3E01951010A1F
:1017F600A9E01951020AADE01951030AB1E01951E5
:10180600040AB5E01951050AB9E01951060ABDE006
:101816001951070AC1E01951080AC5E01951090A08
:10182600C9E019510A0ACDE019510B0AD1E0D7D700
:06183600000E006E12001E
:10183C001DD010C119F111C11AF112C11BF142ECEA
:10184C0005F01FD010C119F111C11AF112C11BF111
:10185C001EDC17D010C119F111C11AF112C11BF104
:10186C0094EC05F00ED0010E006E0BD001010F515F
:10187C00000ADFE00F51010AE5E00F51020AEAE02D
:04188C00F2D712007D
:1018900015D010C119F111C11AF118DD1AD010C1FB
:1018A00019F111C11AF147DF14D010C119F111C19A
:1018B0001AF183DE0ED0010E006E0BD001010F5124
:1018C000000AE7E00F51010AEAE00F51020AEDE0D9
:0418D000F2D7120039
:1018D4000FC110F10001875115182EE1BF0E01014F
:1018E400101785C0E1FF86C0E2FFE66A83C000F0FE
:1018F40084C001F033EC01F0100E0101196F010EE8
:101904001A6F010E1B6F000E1C6FEEDE110E196FA5
:10191400010E1A6F010E1B6F000E1C6F26DE85C0B0
:10192400E1FF86C0E2FF010EE66E83C000F084C0D2
:1019340001F033EC01F01BD005DEA4C019F1100E48
:101944001A6F010E1B6F010E1C6F000E1D6F010E2E
:101954001E6FA1DDA4C019F1110E01011A6F010E51
:101964001B6F010E1C6F000E1D6F1E6B30DD11C14D
:0419740000F012006D
:101978000101116B126B0FC103F010C104F00FC10C
:1019880005F010C106F003C0E9FF04C0EAFFEE50FD
:10199800200A04E11151121101E110D0010E116F5A
:1019A800000E126F03C0E9FF04C0EAFF05C0E1FFA3
:1019B80006C0E2FFEECFE6FF054A062A03C001F0A3
:1019C80004C002F0034A042A01C0E9FF02C0EAFF8A
:1019D800EE50000AD8E10FC100F010C101F012006A
:1019E8000101156B166B0FC117F110C118F1800EAC
:1019F8001019006E800E005C02E1000E0F5D0BE214
:101A0800010E156F000E166F0F510008176F10C1E9
:101A180018F1000E185717C119F118C11AF111C1A0
:101A28001BF112C11CF103DC060E136F000E146FBC
:101A3800000E006E1451005C02E11351000819E217
:101A480013511125E16E14511221E26E010E135D3E
:101A5800006E000E1459016E00501125E96E0150F8
:101A68001221EA6EEECFE6FF010E135F000E145B43
:101A7800DFD711C1E1FF12C1E2FF200EE66E15515A
:101A880016111AE0136B146B13511125E96E1451DA
:101A98001221EA6EEE50200A03E1134B142BF4D7FF
:101AA800010E135F000E145B13511125E16E1451E2
:0A1AB8001221E26E2D0EE66E120000
:101AC2000FC112F110C113F10D0E0101146F0A0EB4
:101AD200156F35D012C119F113C11AF1F4DD3AD0E4
:101AE20012C1E9FF13C1EAFFEE5209E012C119F176
:101AF20013C11AF1E8DD0101124B132BF1D72AD0E1
:101B020012C1E9FF13C1EAFFEE5209E012C119F155
:101B120013C11AF1D8DD0101124B132BF1D70101C8
:101B2200140E196F010E1A6FCEDD150E0101196F19
:101B3200010E1A6FC8DD0ED0060E006E0CD0010128
:101B42001151000AC7E01151010ACAE01151020AFB
:081B5200D7E0F2D7006A12008F
:101B5A002FD010C119F111C11AF112C11BF113C111
:101B6A001CF19FEC08F032D010C119F111C11AF121
:101B7A0012C11BF113C11CF1D1EC07F027D010C11F
:101B8A0019F111C11AF112C11BF113C11CF13EEC7A
:101B9A0007F01CD010C119F111C11AF112C11BF1C1
:101BAA0013C11CF1C2EC06F011D0010E006E0ED06A
:101BBA0001010F51000ACDE00F51010AD5E00F5182
:0E1BCA00020ADDE00F51100AE5E0EFD712002D
:101BD80015C1A4F071C087F012C119F113C11AF12F
:101BE80014C11BF15AEC06F00FC119F110C11AF11A
:0A1BF80011C11BF1E6EC05F012002C
:101C020001010F6B070E106F010E116F40DE010113
:101C12000F6B020E106F116B3ADE01010F6B060E95
:101C2200106F116B34DE01010F6B080E106F116B18
:101C32002EDE01010F6B090E106F116B28DE010100
:101C42000F6B520E106F1E0E116F000E126FF5DD2C
:101C5200100E01010F6F800E106F250E116F000E16
:101C6200126F136F79DF090E0B6E1E0E0C6EE40EEF
:101C72000D6E0D2EFED70C2EFCD70B2EFAD70000C0
:021C820012004E
:101C84000900F5CFE6FF0006FBE10106F9E11200C9
:101C9400DE0E01010F6F1D0E106F000E116F3E0E50
:101CA400126F1E0E136F000E146F76C015F192DFC3
:101CB400090E0B6E1E0E0C6EE40E0D6E0D2EFED76D
:101CC4000C2EFCD70B2EFAD700003A0E0F6F000E25
:101CD400106F020E116FF3DE280E01010F6F000E5C
:101CE400106F020E116FEBDE160E01010F6F000E66
:0A1CF400106F020E116FE3DE120004
:101CFE00FD0E01010F6FE7DD00C00FF1000E0101B7
:101D0E00106FDD0E116F000E126F67DEDD0E0F6F9E
:101D1E00000E106F2ADE620E0F6F000E106F020E95
:101D2E00116FC8DEDD0E01010F6F000E106F020E77
:101D3E00116FC0DE500E01010F6F000E106F020EFC
:101D4E00116FB8DEA30E0B6E570E0C6E020E0D6EDB
:101D5E000D2EFED70C2EFCD70B2EFAD7000012003C
:0E1D6E002BEC0FF047DF8FDFC3DFFED7FFD770
:101E560010EE15F0620E006E010E016E7C0EF66E2F
:0E1E66001D0EF76E000EF86E42EC0EF012002C
:011D7C000264
:101D7D002D2D2D2D2D2D2D2D2D2D2D2D2D2D2D2D86
:021D8D002D0027
:101D8F0020416461707465722020436C69636B201D
:021D9F00200022
:101DA1002D2D2D2D2D2D2D2D2D2D2D2D2D2D2D2D62
:021DB1002D0003
:041DB300000000002C
:101DB7002D2D2D2D2D2D2D2D2D2D2D2D2D2D2D2D4C
:021DC7002D00ED
:0F1DC90020526561642064617461203A2020001B
:011DD8000109
:041DD9000000000006
:011DDD004CB9
:101DDE0098012D018A012D015E012D0134012D0185
:101DEE0026012D0150012D0142012D01A6012D01CB
:101DFE0008022D01FA012D0124022D0116022D01DA
:101E0E009A04000050060000460600003C06000042
:101E1E0002060000640600005A0600006E0600006E
:101E2E000C0800000C060000F80500002806000053
:101E3E0006040000AE070000560700007E022701D0
:041E4E00520827010E
:041E5200A086010065
:020000040030CA
:0E00000015137F7CF98B91FFFFC0FFE0FF40DE
:00000001FF
