:10000000DBEF09F00000000000EF00F0000000004E
:0A0010000000000000000000F3D71C
:0A001C00000EA4BA010E006E1200DF
:100026001DCF01F00F0122A302D02299228901C01F
:0400360000F01200C4
:0A003A00000E81B4010E006E1200EA
:0A004400000E82B6010E006E1200DD
:0A004E00000E9EBA010E006E1200B3
:0A005800000E82B8010E006E1200C7
:0A006200000E82B0010E006E1200C5
:0A006C00000E80B0010E006E1200BD
:0A007600000E81B0010E006E1200B2
:0A008000000E80B2010E006E1200A7
:0A008A00000E84B2010E006E120099
:0A009400000E82BA010E006E120089
:0A009E00000E86B0010E006E120085
:0A00A800000E84B0010E006E12007D
:1000B200AECF01F0ABA202D0AB98AB8801C000F08A
:0200C20012002A
:0E00C4000001A9B102D08D9401D08D841200EC
:0E00D2000001A9B102D08B9601D08B861200DE
:0E00E0000001A9B102D08B9801D08B881200CC
:0E00EE000001A9B102D08D9601D08D861200BE
:0E00FC000001A9B102D08B9601D08B861200B4
:0E010A000001A9B102D08B9801D08B881200A1
:0E0118000001A9B102D0899401D0898412009F
:0E0126000001A9B102D08F9201D08F82120089
:0E0134000001A9B102D08B9601D08B8612007B
:0E0142000001A9B102D08B9801D08B88120069
:0E0150000001A9B102D08F9401D08F8412005B
:0E015E000001A9B102D08B9A01D08B8A120049
:0E016C000001A9B102D08F9001D08F80120047
:0E017A000001A9B102D08A9401D08A8412003B
:10018800A9C0C9FF016A0150000A05E1000EC7B005
:0C019800010E016EF8D7C9CF00F0120074
:1001A400A9C06AFF016A0150000A05E1000E68B0A7
:0C01B400010E016EF8D76ACF00F01200B7
:0A01C000000E86B4010E006E12005E
:0A01CA00000E81B2010E006E12005B
:0A01D400000E82BC010E006E120046
:0A01DE00000E84B6010E006E120040
:0A01E800000E82B8010E006E120036
:0A01F200000E82B6010E006E12002E
:0A01FC00000E82B8010E006E120022
:0A020600000E86B2010E006E120019
:0A021000000E82B4010E006E120011
:0A021A00000E82B6010E006E120005
:0A022400000E82B8010E006E1200F9
:0A022E00000E84B4010E006E1200F1
:0A023800000EACB2010E006E1200C1
:0C024200000E0F0121B3010E006E12002F
:0A024E00000E82B8010E006E1200CF
:0A025800000E80B8010E006E1200C7
:0A026200000E82BA010E006E1200B9
:0A026C00000E82B2010E006E1200B7
:0A027600000E82BE010E006E1200A1
:0A028000000E82BC010E006E120099
:0A028A00000E82BA010E006E120091
:0A029400000E82B6010E006E12008B
:0A029E00000E82B6010E006E120081
:0A02A800000E82B8010E006E120075
:0A02B200000E82B6010E006E12006D
:0A02BC00000E82BE010E006E12005B
:0A02C600000E80B4010E006E12005D
:0E02D0000001A9B102D08B9A01D08B8A1200D6
:0E02DE000001A9B102D08B9801D08B881200CC
:0E02EC000001A9B102D08B9601D08B861200C2
:0E02FA000001A9B102D08B9E01D08B8E1200A4
:0E0308000001A9B102D08A9001D08A801200B3
:0E0316000001A9B102D08B9201D08B8212009F
:0E0324000001A9B102D08D9001D08D80120091
:0E033200ACB202D00000FCD7A9C0ADFF120093
:10034000A9C06AFF016A0150000A05E1000E68B009
:0C035000010E016EF8D76ACF01F0120018
:10035C00A9C0C9FF016A0150000A05E1000EC7B02F
:0C036C00010E016EF8D7C9CF01F012009D
:0E0378000001A9B102D08B9001D08B80120041
:0E0386000001A9B102D0899001D08980120037
:100394000F0121B302D00000FBD7A9C01CFF12003B
:0E03A4000001A9B102D08B9401D08B8412000D
:0E03B2000001A9B102D08B9A01D08B8A1200F3
:0E03C0000001A9B102D08B9801D08B881200E9
:0E03CE000001A9B102D08B9C01D08B8C1200D3
:0E03DC000001A9B102D08B9E01D08B8E1200C1
:0E03EA000001A9B102D08A9201D08A821200CD
:0E03F8000001A9B102D08B9601D08B861200B5
:0E0406000001A9B102D08B9801D08B881200A2
:0E0414000001A9B102D08B9601D08B86120098
:0E0422000001A9B102D08B9C01D08B8C12007E
:0E0430000001A9B102D08D9201D08D82120080
:0E043E000001A9B102D0899801D0898812006E
:0E044C000001A9B102D0899201D0898212006C
:10045A00880E00018D6F010E8E6FA90E8F6F000E30
:10046A00906F5C0E916F030E926FA90E936F000E40
:10047A00946F949AA551040A02E1948601D0949645
:10048A009488C66AC79CC79EA551C612A751C612B0
:10049A00A651C712A75305E0A851000AD8B4C78CC1
:0C04AA0003D0A853D8A4C78CC68A120047
:1004B600940E0001796F030E7A6FA90E7B6F000E02
:1004C6007C6F260E756F000E766F000E776F000E2E
:1004D600786F1C0E816F000E826F000E836F000E08
:1004E600846F420E7D6F020E7E6F000E7F6F000ED0
:1004F600806F0F01218B900E226F98849892A4AA88
:0A05060003D01DCF00F0FBD7120058
:10051000320E0001796F030E7A6FA90E7B6F000E09
:100520007C6FB20E756F000E766F000E776F000E47
:10053000786F4E0E816F000E826F000E836F000E7B
:10054000846F380E7D6F020E7E6F000E7F6F000E7F
:10055000806FAC8A900EAB6E948E949C9EAA03D052
:08056000AECF00F0FBD7120042
:10056800F250026EF29E0500FF6A0150FE6E0050C6
:08057800FD6E02BEF28E1200BE
:1005800059D000019CB102D0929001D092800F010D
:10059000259176D000019CB102D0949001D0948036
:1005A0006FD000019CB102D0969001D0968068D0A7
:1005B00000019CB102D0949601D0948661D00001D4
:1005C0009CB102D0949801D094885AD000019CB17B
:1005D00002D0949A01D0948A53D000019CB102D0E9
:1005E000949201D094824CD000019CB102D093909F
:1005F00001D0938045D000019CB102D0949E01D0DF
:10060000948E3ED000019CB102D0949C01D0948C79
:1006100037D000019CB102D0949601D0948630D09E
:1006200000019CB102D0949801D0948829D0010E89
:10063000006E28D000019B51000AA3E09B51010AE3
:10064000A9E09B51020AADE09B51030AB1E09B5126
:10065000040AB5E09B51050AB9E09B51060ABDE0CA
:100660009B51070AC1E09B51080AC5E09B51090A4A
:10067000C9E09B510A0ACDE09B510B0AD1E0D7D7C4
:06068000000E006E1200E6
:1006860021D0CF0EAF6EAC9440DF6BD0670EAF6E4D
:10069600AC943BDF66D0CF0EAF6EAC8436DF61D054
:1006A600670EAF6EAC8431DF5CD0440EAF6EAC84A7
:1006B6002CDF57D0220EAF6EAC8427DF52D0060E49
:1006C600006E58D00001000E006E9E1908E1005021
:1006D6009D1905E1120E9C1902E19B51C00AD1E059
:1006E600000E006E9E1908E100509D1905E1250EC9
:1006F6009C1902E19B51800AC9E0000E006E9E190A
:1007060008E100509D1905E14B0E9C1902E19B5131
:10071600000AC1E0000E006E9E1908E100509D1906
:1007260005E1960E9C1902E19B51000AB9E0000E04
:10073600006E9E1908E100509D1905E1E10E9C1915
:1007460002E19B51000AB1E09E51000A08E19D5169
:10075600010A05E19C51C20A02E19B51000AAAE086
:10076600AED7320E856F030E866FA90E876F000E09
:06077600886F006A12000A
:10077C0038D00F0120870D0E1F6F040E1E6F2185C0
:10078C0094DE7ED00F012087060E1F6F820E1E6F27
:10079C0021858BDE75D00F012087030E1F6F400E55
:1007AC001E6F218582DE6CD00F012087010E1F6F1A
:1007BC00A00E1E6F218579DE63D00F012087010EFC
:1007CC001F6F150E1E6F218570DE5AD00F0120870A
:1007DC001F6B8A0E1E6F218568DE52D0060E006ECE
:1007EC0059D0000E006E00019E1908E100509D19B1
:1007FC0005E1120E9C1902E19B51C00ABAE0000EF1
:10080C00006E9E1908E100509D1905E1250E9C19FA
:10081C0002E19B51800AB6E0000E006E9E1908E1C1
:10082C0000509D1905E14B0E9C1902E19B51000AE9
:10083C00B2E0000E006E9E1908E100509D1905E112
:10084C00960E9C1902E19B51000AAEE0000E006E60
:10085C009E1908E100509D1905E1E10E9C1902E179
:10086C009B51000AAAE09E51000A08E19D51010A21
:10087C0005E19C51C20A02E19B51000AA7E0AED7E8
:10088C000001940E856F030E866FA90E876F000E04
:06089C00886F006A1200E3
:1008A20021D0CF0EAF6EAC9432DE6BD0670EAF6E3E
:1008B200AC942DDE66D0CF0EAF6EAC8428DE61D054
:1008C200670EAF6EAC8423DE5CD0440EAF6EAC8498
:1008D2001EDE57D0220EAF6EAC8419DE52D0060E49
:1008E200006E58D00001000E006E9E1908E1005003
:1008F2009D1905E1120E9C1902E19B51C00AD1E03B
:10090200000E006E9E1908E100509D1905E1250EAA
:100912009C1902E19B51800AC9E0000E006E9E19EB
:1009220008E100509D1905E14B0E9C1902E19B5113
:10093200000AC1E0000E006E9E1908E100509D19E8
:1009420005E1960E9C1902E19B51000AB9E0000EE6
:10095200006E9E1908E100509D1905E1E10E9C19F7
:1009620002E19B51000AB1E09E51000A08E19D514B
:10097200010A05E19C51C20A02E19B51000AAAE068
:10098200AED7320E856F030E866FA90E876F000EEB
:06099200886F006A1200EC
:100998009BC0F6FF9CC0F7FF9DC0F8FF0900F5CF8C
:1009A800A5F0040E00019B25F66E000E9C21F76E43
:1009B800000E9D21F86E0900F5CFA6F0080E9B25C4
:1009C800F66E000E9C21F76E000E9D21F86E090050
:1009D800F5CFA7F00C0E9B25F66E000E9C21F76E46
:1009E800000E9D21F86E0900F5CFA8F032DD000E4B
:0409F800006E12007B
:1009FC009BC0F6FF9CC0F7FF9DC0F8FF0900F5CF28
:100A0C00A5F0040E00019B25F66E000E9C21F76EDE
:100A1C00000E9D21F86E0900F5CFA6F0080E9B255F
:100A2C00F66E000E9C21F76E000E9D21F86E0900EB
:100A3C00F5CFA7F00C0E9B25F66E000E9C21F76EE1
:100A4C00000E9D21F86E0900F5CFA8F000DD000E18
:040A5C00006E120016
:100A60005DD000019CB102D0929401D092840F011C
:100A700025957AD000019CB102D0969601D0968639
:100A800073D000019CB102D0969401D096846CD0B2
:100A900000019CB102D0949601D0948665D00001EB
:100AA0009CB102D0949801D094885ED000019CB192
:100AB00002D0949A01D0948A57D000019CB102D000
:100AC000989001D0988050D000019CB102D09394AE
:100AD00001D0938449D000019CB102D0989401D0F8
:100AE00098840F01239540D000019CB102D09892C8
:100AF00001D098820F01239337D000019CB102D01E
:100B0000949601D0948630D000019CB102D0949884
:100B100001D0948829D0010E006E28D000019B518D
:100B2000000A9FE09B51010AA5E09B51020AA9E03F
:100B30009B51030AADE09B51040AB1E09B51050AA9
:100B4000B5E09B51060AB9E09B51070ABDE09B51F5
:100B5000080AC1E09B51090AC7E09B510A0ACDE08F
:0E0B60009B510B0AD1E0D7D7000E006E120099
:100B6E009BC0F6FF9CC0F7FF9DC0F8FF0900F5CFB4
:100B7E00A5F0040E00019B25F66E000E9C21F76E6B
:100B8E00000E9D21F86E0900F5CFA6F0080E9B25EC
:100B9E00F66E000E9C21F76E000E9D21F86E090078
:100BAE00F5CFA7F00C0E9B25F66E000E9C21F76E6E
:100BBE00000E9D21F86E0900F5CFA8F047DC000E5F
:040BCE00006E1200A3
:100BD20059D000019CB102D0929201D092820F01B1
:100BE200259376D000019CB102D0929801D09288D0
:100BF2006FD000019CB102D0969201D0968268D04B
:100C020000019CB102D0949601D0948661D000017B
:100C12009CB102D0949801D094885AD000019CB122
:100C220002D0949A01D0948A53D000019CB102D090
:100C3200949401D094844CD000019CB102D0939240
:100C420001D0938245D000019CB102D0949E01D084
:100C5200948E3ED000019CB102D0949C01D0948C21
:100C620037D000019CB102D0949601D0948630D046
:100C720000019CB102D0949801D0948829D0010E31
:100C8200006E28D000019B51000AA3E09B51010A8B
:100C9200A9E09B51020AADE09B51030AB1E09B51CE
:100CA200040AB5E09B51050AB9E09B51060ABDE072
:100CB2009B51070AC1E09B51080AC5E09B51090AF2
:100CC200C9E09B510A0ACDE09B510B0AD1E0D7D76C
:060CD200000E006E12008E
:100CD80022D0CF0EAF6EAC9417DC6CD0670EAF6E1F
:100CE800AC9412DC67D0CF0EAF6EAC840DDC62D052
:100CF800670EAF6EAC8408DC5DD0440EAF6EAC847A
:100D080003DC58D0220EAF6EAC8488EC02F052D0CF
:100D1800060E006E58D00001000E006E9E1908E104
:100D280000509D1905E1120E9C1902E19B51C00A61
:100D3800D0E0000E006E9E1908E100509D1905E1F3
:100D4800250E9C1902E19B51800AC8E0000E006E36
:100D58009E1908E100509D1905E14B0E9C1902E10E
:100D68009B51000AC0E0000E006E9E1908E1005079
:100D78009D1905E1960E9C1902E19B51000AB8E005
:100D8800000E006E9E1908E100509D1905E1E10E64
:100D98009C1902E19B51000AB0E09E51000A08E14B
:100DA8009D51010A05E19C51C20A02E19B51000ACA
:100DB800A9E0AED7320E856F030E866FA90E876F36
:080DC800000E886F006A1200A2
:100DD0000001A36BA46B9CC0A1F09DC0A2F09BC0BE
:100DE00000F0003600904EC0E1FF4FC0E2FF00C0AF
:100DF000E6FF4CC000F04DC001F0B4EC02F0005032
:100E00000001A313000EA4139EC000F09FC001F0C8
:100E1000010E9E5F000E9F5B0050011018E04EC057
:100E2000E1FF4FC0E2FFA1C0E9FFA2C0EAFFEECFA1
:100E3000E6FF4CC000F04DC001F0B4EC02F00050F1
:100E40000001A313000EA413A14BA22BDDD7A051C8
:100E5000000A06E161C000F062C001F0B4EC02F0EB
:100E60000001A051010A06E150C000F051C001F09C
:0E0E7000B4EC02F0A3C000F0A4C001F0120028
:100E7E0087C0E1FF88C0E2FF9BC0E9FF9CC0EAFF8C
:100E8E00EECFE6FF85C000F086C001F0B4EC02F0B4
:040E9E00006A1200D4
:100EA2009BC09FF09CC0A0F09DC000F09EC001F0CE
:100EB200010E00019D5F000E9E5B0050011014E0C8
:100EC2005AC0E1FF5BC0E2FF9FC0E9FFA0C0EAFF9A
:100ED200EECFE6FF58C000F059C001F0B4EC02F0CA
:0A0EE20000019F4BA02BE0D7120087
:100EEC0000019B6B9C6B50C000F051C001F0B4EC46
:100EFC0002F000C09BF0000E00019C6F9BC000F044
:060F0C009CC001F0120080
:100F1200300E00019B25006E000E9C21016E000E1A
:100F22009D21026E1C0E0024F66E000E0120F76E4B
:100F3200000E0220F86E0900F5CF6DF00900F5CF22
:100F42006EF00900F5CF6FF00900F5CF70F0080ED2
:100F52009B25F66E000E9C21F76E000E9D21F86E09
:100F62000900F5CF71F00900F5CF72F00900F5CF55
:100F720073F00900F5CF74F0180E9B25F66E000E83
:100F82009C21F76E000E9D21F86E0900F5CF69F0E5
:100F92000900F5CF6AF00900F5CF6BF00900F5CF33
:100FA2006CF0200E9B25F66E000E9C21F76E000E53
:100FB2009D21F86E0900F5CF65F00900F5CF66F0C6
:100FC2000900F5CF67F00900F5CF68F0240E9B25E4
:100FD200F66E000E9C21F76E000E9D21F86E090040
:100FE200F5CF54F00900F5CF55F00900F5CF56F0D2
:080FF2000900F5CF57F01200D1
:100FFA009BC0F6FF9CC0F7FF9DC0F8FF0900F5CF24
:10100A0058F00900F5CF59F00900F5CF5AF0090058
:10101A00F5CF5BF0040E00019B25F66E000E9C21B5
:10102A00F76E000E9D21F86E0900F5CF89F00900D0
:10103A00F5CF8AF00900F5CF8BF00900F5CF8CF0D7
:02104A00120092
:10104C005EC095F05FC096F05D504B1822E173C006
:10105C00E1FF74C0E2FFE66A71C000F072C001F0FB
:10106C00B4EC02F0950E00019B6F000E9C6F020E0B
:10107C009D6F000E9E6F0FDF73C0E1FF74C0E2FF27
:10108C00010EE66E71C000F072C001F0B4EC02F01B
:10109C000DD026DF5CC09BF0950E9C6F000E9D6FF3
:0E10AC00020E9E6F000E9F6FA06B8CDE120076
:1010BA001BD096C09BF097C09CF098C09DF099DC1D
:1010CA001ED096C09BF097C09CF098C09DF05FDC44
:1010DA0016D096C09BF097C09CF098C09DF042DD58
:1010EA000ED0010E006E0BD000019551000AE1E00E
:1010FA009551010AE6E09551020AEBE0F2D7120097
:10110A006BC0E1FF6CC0E2FF010EE66E69C000F041
:0A111A006AC001F0B4EC02F012000C
:1011240016D096C09BF097C09CF0C0EC02F01AD089
:1011340096C09BF097C09CF04ADD14D096C09BF0FB
:1011440097C09CF08BDC0ED0010E006E0BD000011A
:101154009551000AE6E09551010AEAE09551020A28
:06116400EDE0F2D71200DD
:10116A002ED096C09BF097C09CF098C09DF099C075
:10117A009EF043EC03F031D096C09BF097C09CF0F0
:10118A0098C09DF099C09EF051EC04F026D096C00C
:10119A009BF097C09CF098C09DF099C09EF0BEEC61
:1011AA0003F01BD096C09BF097C09CF098C09DF0AE
:1011BA0099C09EF08CDD11D0010E006E0ED0000198
:1011CA009551000ACEE09551010AD6E09551020ADE
:0C11DA00DEE09551100AE6E0EFD71200AD
:1011E60095C05EF096C05FF00D0E0001606F0A0EAE
:1011F600986F33D05EC09BF05FC09CF03DDE38D068
:101206005EC0E9FF5FC0EAFFEE5208E05EC09BF0F9
:101216005FC09CF031DE5E4A5F2AF2D729D05EC0FD
:10122600E9FF5FC0EAFFEE5208E05EC09BF05FC0D8
:101236009CF022DE5E4A5F2AF2D7600E00019B6FA9
:10124600000E9C6F19DE980E00019B6F000E9C6FBE
:1012560013DE0ED0060E006E0CD000019751000A68
:10126600C9E09751010ACCE09751020AD8E0F2D7BB
:04127600006A1200F8
:10127A004BC05DF098C09BF099C09CF09AC09DF05D
:10128A00B7DE95C09BF096C09CF097C09DF03CDEFF
:10129A0073C0E1FF74C0E2FFE66A71C000F072C079
:0812AA0001F0B4EC02F01200A7
:1012B2000001956B070E966F010E976F32DF0001EA
:1012C200956B020E966F976B2CDF0001956B060EE5
:1012D200966F976B26DF0001956B080E966F976BE2
:1012E20020DF0001956B090E966F976B1ADF0001E4
:1012F200956B5B0E966F140E976F000E986FDCDE87
:10130200100E956F800E966F250E976F000E986FD8
:10131200996F2ADF090E0B6E1E0E0C6EE40E0D6E17
:101322000D2EFED70C2EFCD70B2EFAD70000120082
:101332000900F5CFE6FF0006FBE10106F9E1120024
:0C134200E3DE5E6A790E5F6E80DE120052
:10134E00C40E0001956F130E966F000E976F6B0E05
:10135E00986F140E996F000E9A6F88DF090E0B6E40
:10136E001E0E0C6EE40E0D6E0D2EFED70C2EFCD73F
:10137E000B2EFAD70000270E0001956F000E966F08
:10138E00020E976F29DF390E0001956F000E966FD2
:10139E00020E976F21DF150E0001956F000E966FEE
:0813AE00020E976F19DF120017
:0E13B6003AEC0AF07BDFC8DFC1DFFED7FFD7BD
:1014740010EE15F0370E006E010E016E240EF66E9E
:0E148400140EF76E000EF86E99EC09F01200CF
:1013C4008603A9007803A9002403A900EC02A9005C
:1013D400DE02A900D002A9001603A9000803A9008F
:1013E400FA02A9002204A9001404A9000604A90011
:1013F4006C00000062000000A8000000440000002F
:1014040058000000620200006C0200007600000038
:101414007602000080020000B20200004E020000CA
:101424002D2D2D2D2D2D2D2D2D2D2D2D2D2D2D2DE8
:021434002D0089
:101436002D2D2D2D2D2D2D2D2D2D2D2D2D2D2D2DD6
:021446002D0077
:1014480020416461707465722020436C69636B206D
:02145800200072
:01145A00028F
:10145B00020000000000000000000000010000007E
:08146B005C03A9008801A9003F
:020000040030CA
:0E00000015137F7CF98B91FFFFC0FFE0FF40DE
:00000001FF
